:020000040800F2
:10000000D0050020D90100086F140008C9130008AA
:100010006D140008E50200086B18000800000000DD
:100020000000000000000000000000009314000821
:10003000A9030008000000009114000895140008AE
:10004000F3010008F3010008F3010008F3010008C0
:10005000F3010008F3010008F3010008F3010008B0
:10006000F3010008F3010008F3010008F3010008A0
:10007000F3010008F3010008F3010008F301000890
:10008000F3010008F3010008F3010008F301000880
:10009000F3010008F3010008F3010008F301000870
:1000A000F3010008F3010008F3010008F301000860
:1000B000F3010008F3010008F3010008F301000850
:1000C000F3010008F3010008F3010008F301000840
:1000D000F3010008F3010008F3010008F301000830
:1000E000F3010008F3010008F3010008F301000820
:1000F000F3010008F3010008F3010008F301000810
:10010000F3010008F3010008F3010008F3010008FF
:10011000F3010008F3010008F3010008F3010008EF
:10012000F3010008F3010008E9020008F3010008E8
:10013000F30100080000000000000000F3010008C7
:10014000F3010008F3010008F3010008F3010008BF
:10015000F3010008F3010008F3010008F3010008AF
:10016000F3010008F3010008F3010008F30100089F
:10017000F3010008F3010008F3010008000000008B
:1001800000000000F3010008000000000000000073
:10019000F30100080000000000000000F301000867
:1001A000000000000000000000000000F301000853
:1001B000F3010008F3010008F3010008F30100084F
:1001C000F3010008DFF80CD000F07AF8004800478F
:1001D00051190008D005002006488047064800470E
:1001E000FEE7FEE7FEE7FEE7FEE7FEE7FEE7FEE7E7
:1001F000FEE7FEE71D150008C50100082DE9F05FC8
:100200000546002092469B46884606468146402485
:100210001BE0284641464746224600F041F8534637
:100220005A46C01A914110D311461846224600F092
:1002300028F82D1A67EB01084F46224601200021BD
:1002400000F01FF817EB00094E41201EA4F1010435
:10025000DFDC484631462A464346BDE8F09FD2B22D
:1002600001E000F8012B491EFBD270470022F6E79F
:1002700010B513460A4604461946FFF7F0FF20461C
:1002800010BD202A04DB203A00FA02F1002070475A
:100290009140C2F1200320FA03F3194390407047C4
:1002A000202A04DB203A21FA02F00021704721FACB
:1002B00002F3D040C2F12002914008431946704732
:1002C000064C074D06E0E06840F0010394E80700A3
:1002D00098471034AC42F6D3FFF778FF081A0008AD
:1002E000281A0008FEE7000010B5044800F05EF888
:1002F000BDE810400421024801F01EB84C00002067
:100300001000002001681823CAB2103AB2FBF3F2C1
:10031000054B6FF30901032A9B5CC36500D9091DD6
:100320008165084670470000F019000810B50146C5
:1003300000208B698A6A4FF0C07453B1B3F5005F37
:1003400015D072B1012A0CD0022A0AD0032A09D191
:1003500004E01AB1012A06D0022A03D1C96AC901F0
:1003600000D5012010BDC96AA142FAD010BD002AF3
:10037000F7D0012AF2D0022AF3D0032AF3D010BD1D
:1003800030B50468256825F480252560046863601D
:100390008368402B036803D099600068C26030BD59
:1003A0009A600068C16030BD704770472DE9F8431E
:1003B00004464FF00009CDF8009063484FF4165101
:1003C000A56D0068B0FBF1F72E6894F85C1008206A
:1003D00000FA01F131420FD021680A6852070BD5AB
:1003E0000A6822F004020A6094F85C108840A86051
:1003F000606D40F00100606594F85C104FF00108FA
:1004000008FA01F0304208D021684969090604D58C
:10041000A860606D40F00200606594F85C100420F4
:100420008840304208D021680968890704D5A8604F
:10043000606D40F00400606594F85C101020884006
:10044000304218D021680968090714D5A8602068CF
:100450000168490304D50068000308D5A16C07E0D2
:100460000168C90503D4016821F008010160216C0D
:1004700009B12046884794F85C102020884030421B
:1004800031D021680968C9062DD5A86094F83500D7
:1004900005282068016806D0490347D50068000395
:1004A0001DD4616C1CE021F01601016020684169D7
:1004B00021F080014161206C08B9A06C20B1206856
:1004C000016821F00801016094F85C103F20884029
:1004D000A86084F8349084F83580216D1FE0E16BCA
:1004E00009B120468847606D00282BD0606DC00799
:1004F00014D0052084F835002068016821F001013E
:1005000001600098401C0090B84203D82068006841
:10051000C007F6D184F8349084F83580E16C002966
:1005200010D001B02046BDE8F04308470168C90576
:10053000D5D4016821F01001016084F8349084F86A
:100540003580CCE7BDE8F8830C0000202DE9F041B0
:10055000044600F073F906465CB1002584F8345077
:10056000022084F835002068016821F00101016053
:100570000DE00120BDE8F08100F060F9801B052846
:1005800005D920206065032084F83500F2E7206853
:100590000068C007F0D12268116820480140D4E902
:1005A00001031843D4E903363343184363691843FE
:1005B000A3691843E3691843236A18430843616A2F
:1005C000042903D1D4E90B131943084310602068B0
:1005D0004069666A20F0070130460E43012704286F
:1005E0000CD1A06A0643E06A40B12046FFF79EFEA8
:1005F00020B14020606584F83570BAE72068466114
:100600002046FFF77FFE94F85C203F2191408160F7
:10061000656584F835700020ACE700003F8010F07D
:100620002DE9F0410446866D90F83400002501283C
:100630000DD0012084F8340094F835700020012F8B
:1006400007D084F8340002252846BDE8F081022056
:10065000FBE7022784F8357060652046FFF790FEBF
:1006600094F85C103F208840B0602068016841F039
:10067000160101602068416941F080014161206CF0
:1006800020B12068016841F008010160206801681C
:1006900041F001010160D7E72DE9F84FDFF874B1AF
:1006A00000224FF001084FF0030A4FF00F090BF141
:1006B000040E00BF0B6808FA02F42340A3426ED177
:1006C0004D68022D01D0122D0ED1D50800EB850CFE
:1006D000DCF820505607F70E09FA07F6B5430E6905
:1006E000BE402E43CCF82060066855000F790AFA08
:1006F00005FC07F0030726EA0C06AF403743076006
:100700004E68012E05D0022E03D0112E01D0122EDC
:100710000ED18668CF6826EA0C06AF403743876063
:100720004668A6430C79C4F30014944034434460F3
:10073000C4688E6824EA0C04AE402643C6604C6848
:10074000E40060D5344C256845F480452560246874
:1007500022F0030504F480440094304C2E19D6F89E
:10076000084895072F0F09FA07F5AC432C4DA8420E
:1007700001D100251FE02B4DA84201D101251AE02F
:10078000294DA84201D1022515E0284DA84201D1EA
:10079000032510E0264DA84202D104250BE032E0EB
:1007A000244DA84201D1052505E0234DA84201D1E1
:1007B000062500E00725BD402543C6F80858DBF8AC
:1007C00000405D464E689C43F60300D51C432C60F8
:1007D000DEF8004075464E689C43B60300D51C43C6
:1007E0002C600C4D08352C684E689C43F60200D5F1
:1007F0001C432C60074D0C352C684E689C43B60298
:1008000000D51C432C60521C102AFFF453AFBDE8E6
:10081000F88F0000003C01404438024000300140A5
:10082000000002400004024000080240000C0240A8
:100830000010024000140240001802400148806885
:1008400070470000000000200248816802781144CF
:1008500081607047000000200B4810B5016841F42A
:1008600000710160016841F480610160016841F438
:1008700080710160032000F06FF8002000F006F89E
:1008800000F024F8002010BD003C024070B50D4D72
:1008900004464FF47A712878B1FBF0F00A490968F0
:1008A000B1FBF0F000F0EEFA48B9102C07D20022AC
:1008B0002146501E00F030F800206C6070BD012011
:1008C00070BD0000000000200C0000200B4882B02A
:1008D000016841F480410160006800F480400090AC
:1008E0000648001F016841F080510160006800F077
:1008F00080500090072002B000F02EB8443802402B
:1009000000F01F02012191404009800000F1E02029
:10091000C0F8001170470000F0B40E4B1B680C4685
:10092000C3F30223C3F10705042D00D90425191DC3
:10093000072901D2002300E0DB1E012606FA05F19B
:10094000491E214099409E40761E16403143F0BC1E
:1009500000F08EBD0CED00E0064900F007020868CB
:100960004FF6FF03184040EA0220034A1043086094
:10097000704700000CED00E00000FA052DE9F0479B
:100980000E46050065D0DFF81481D8F80000F7B2F4
:1009900000F00F00B04207D288F80070D8F80000CD
:1009A00000F00F00B04254D128683D4C810712D5A9
:1009B000400703D5206840F4E05020602878000705
:1009C00003D5206840F4604020602068A96820F0CA
:1009D000F000084320602878C0072DD030496868AF
:1009E0000839012812D0022813D0032811D0096831
:1009F000890700292DDA216821F0030101432160D4
:100A0000FFF71CFF814641F2883A0EE0096889032E
:100A1000EFE709688901ECE7FFF710FFA0EB090198
:100A2000514502D90320BDE8F0872068696800F0CD
:100A30000C00B0EB810FEFD1D8F80010404601F068
:100A40000F01B14207D90770006800F00F00B042F3
:100A500001D00120E7E72878400705D52068E9683C
:100A600020F4E050084320602878000706D520686D
:100A7000296920F4604040EAC100206000F016F8C7
:100A80002168084AC1F30311515CC8400649086057
:100A90000020FFF7FBFE0020C5E70000003C0240FD
:100AA00008380240F81900080C000020224810B550
:100AB000006810F00C02214815D04110042A11D012
:100AC0001D4C241F082A0FD00C2A0CD12268236841
:100AD00002F03F025B0221D52068C0F38810A0FB22
:100AE000010120E0084610BD2268236802F03F02A1
:100AF0005B0205D52068C0F38810A0FB010104E06B
:100B00002168C1F38811A1FB00010023FFF776FBE8
:100B10002168C1F30141491C49000AE02168C1F381
:100B20008811A1FB00010023FFF768FB2168C1F3D6
:100B30000271B0FBF1F010BD083802400024F4004F
:100B40002DE9F84F0546DFF828B30078ABF104072C
:100B5000C007A7F1040451D0DBF800105846C1F3D8
:100B6000810101290FD00168C1F38101022902D15D
:100B70003968490207D40068C0F38100032809D10D
:100B80003868400206D52068800337D56868002899
:100B900072D033E06868B0F5803F10D0B0F5A02F78
:100BA000206810D020F480302060206820F480205D
:100BB00020606868A8B1FFF741FE06460DE0206896
:100BC00040F48030F4E740F480202060F7E700BF75
:100BD000FFF734FE801B642878D820688003F7D59F
:100BE0000CE0FFF72BFE064605E000BFFFF726FEF0
:100BF000801B6428F0D820688003F7D42878DFF8B9
:100C0000749280074FF0000A46D5DBF80010584672
:100C100011F00C0F0FD00168C1F38101022902D13C
:100C20003968490207D50068C0F38100032809D15B
:100C30003868400206D42068800715D5E868012886
:100C40001AD111E0E868C0B10120C9F80000FFF72F
:100C5000F5FD064605E000BFFFF7F0FD801B02280A
:100C6000BAD820688007F7D52068296920F0F800F5
:100C700040EAC10020600FE0F7E0C9F800A0FFF7EC
:100C8000DDFD064605E000BFFFF7D8FD801B02280A
:100C90001CD820688007F7D42878000727D5DFF80C
:100CA000D0817548696908F16C0881B10121016042
:100CB000FFF7C4FD064604E0FFF7C0FD801B0228D5
:100CC00004D8D8F800008007F6D510E089E0C0F815
:100CD00000A0FFF7B3FD064605E000BFFFF7AEFD3D
:100CE000801B02287DD8D8F800008007F6D4287829
:100CF000400769D55E484FF0000838300068C000F2
:100D00000BD45B483830016841F0805101600068C5
:100D10004FF0010800F080500090584E3068C00538
:100D200011D4306840F480703060FFF787FD009088
:100D300006E000BFFFF782FD0099401A022850D854
:100D40003068C005F6D54A4EA868683601280FD02D
:100D50000528306810D020F001003060306820F0A5
:100D600004003060A868B8B1FFF768FD00900FE09C
:100D7000306840F00100F4E740F004003060F7E72D
:100D8000FFF75CFD0099411A41F28830814264D836
:100D900030688007F4D50EE0FFF750FD009007E0C3
:100DA000FFF74CFD0099411A41F28830814254D836
:100DB00030688007F4D4B8F1000F05D02C483830E3
:100DC000016821F080510160A869A8B3DBF8001028
:100DD000C1F38101022948D00228C9F860A005D0DA
:100DE00000E03AE0FFF72AFD054639E0FFF726FD6F
:100DF000064604E0FFF722FD801B02282DD820685C
:100E00008001F7D4F5E907010843E9681C4A49085D
:100E100002EB0141AA6841EA82110843297C40EAB9
:100E20000160297D40EA017038600120C9F8600046
:100E3000FFF704FD054606E015E000BFFFF7FEFCE6
:100E4000401B022809D820688001F7D50BE000BFBD
:100E5000FFF7F4FC401B022802D90320BDE8F88FFD
:100E600020688001F4D40020F8E70120F6E70000B4
:100E70000838024000004742800E474200700040A0
:100E80000000FFFF10B5401EB0F1807F01D30120AC
:100E900010BD4FF0E02460610F21601700F0E8FA08
:100EA0000020A06107202061002010BD10B590F83F
:100EB0003820012A25D0012280F83820CA688C68A1
:100EC00022F4407222434C6822F4806222430C6870
:100ED00022F4006222430C6922F4805222434C69BE
:100EE00022F4005222438C6922F48042224322F4ED
:100EF0000041026800232143516480F8383000200B
:100F000010BD022010BD30B590F83820012A20D045
:100F1000012280F83820022380F8393003685C68A9
:100F200024F070045C6003685C680D682C435C60AE
:100F300003689C6824F080049C6003689C6849688E
:100F40000C439C6080F83920002180F83810084656
:100F500030BD022030BD10B5040003D094F8390034
:100F600010B107E0012010BD002084F838002046B1
:100F700000F00CF8022084F83900211D206800F0F0
:100F8000F7FA012084F83900002010BD38B5054675
:100F900000681449884223D1134900200A6842F0AE
:100FA00001020A600968124C01F0010100910F4929
:100FB00021604FF0406161604021C4E902100901E5
:100FC0002161490061618900C4E906102062606204
:100FD0002046FFF7BBFA08B1FFF7E7F96C62A5639B
:100FE00038BD000000000140443802404064024027
:100FF0004C00002070B5044690F83800012817D046
:10100000012584F83850022084F83900206882686D
:1010100022F0770222F47F4282600868502837D09D
:101020000DDC202859D005DC88B3102841D151E0CF
:10103000022070BD302853D040283AD13FE06028CC
:101040002ED070280BD0B0F5805F03D0B0F5005FD4
:101050002FD110E02068816821F0070115E0CB68EE
:10106000D1E90121206800F015FB2168886840F073
:10107000770088601DE0CB68D1E90121206800F08D
:1010800009FB2068816841F48041816011E01EE025
:10109000CA684968206800F0C5FB5021206806E056
:1010A000CA684968206800F0CEFB6021206800F023
:1010B000FBFA84F83950002084F8380070BDCA6803
:1010C0004968206800F0AEFB40212068EFE700216E
:1010D0002068ECE710212068E9E720212068E6E796
:1010E00030212068E3E7704710B586B0044614212C
:1010F0006846FFF7BBF80E492068884216D10D48B4
:101100000021026842F001020260006800F0010064
:1011100005904FF4007000900220CDE901010120FC
:10112000CDE9031069460448FFF7B6FA06B010BDD2
:1011300000000140303802400000024070B5044613
:1011400090F838000D4601280DD0012684F838604B
:10115000022084F8390042B1042A18D0082A2AD083
:101160000C2A4DD139E0022070BD206800F0A4FAAD
:101170002068816941F0080181612068816921F05E
:1011800004018161206881692A69114311E02068A6
:1011900000F0BEFA2068816941F400618161206835
:1011A000816921F480618161206881692A6941EA4D
:1011B0000221816124E0206800F0DCFA2068C16926
:1011C00041F00801C1612068C16921F00401C161D9
:1011D0002068C1692A69114311E0206800F0FAFA19
:1011E0002068C16941F40061C1612068C16921F4CE
:1011F0008061C1612068C1692A6941EA0221C16137
:1012000084F83960002084F8380070BD10B50400FF
:1012100003D094F8390010B107E0012010BD002080
:1012200084F83800204600F00CF8022084F83900D9
:10123000211D206800F09CF9012084F8390000206D
:1012400010BD70477047000070B5044690F8390033
:1012500016460D46022805D094F83900012805D11C
:101260000EB903B170BD022084F839002E482F4911
:1012700035B1042D13D0082D37D00C2D1ED143E0ED
:10128000226AD063206AC164226831463432206AFF
:10129000FFF7C6F92068C16841F400710DE0626A89
:1012A000D063606AC164226831463832606AFFF7F1
:1012B000B7F92068C16841F48061C1600122294604
:1012C000206800F0B5F91A492068884202D019490F
:1012D000884203D1416C41F40041416420680168B7
:1012E00041F001010160002070BDA26AD063A06AD4
:1012F000C164226831463C32A06AFFF791F9206848
:10130000C16841F40061D8E7E26AD063E06AC16471
:10131000226831464032E06AFFF782F92068C168EE
:1013200041F48051C9E700004716000885160008FF
:10133000000001400004014010B50268044631B1CC
:10134000042908D0082932D00C2908D133E0D0680C
:1013500020F4007002E0D06820F48060D0600022A9
:10136000206800F065F9164B41F2111220689110C7
:10137000984202D0134B984209D1036A134206D116
:10138000036A0B4203D1436C23F400434364206897
:10139000036A134206D1026A0A4203D1016821F0AE
:1013A00001010160012084F83900002010BDD068DF
:1013B00020F40060D2E7D06820F48050CEE700002F
:1013C0000000014000040140FEE7000010B594B0A9
:1013D00000240E940F941094119412941C216846CA
:1013E0001394FEF743FF1C2107A8FEF73FFF1E489A
:1013F0001C49C0E900145921C0E90241046144615B
:10140000FFF7A9FD4FF480500E900EA91648FFF784
:10141000F1FD1548FFF7FAFE129412A91248139431
:10142000FFF771FD6020CDE9000402940394049459
:101430000594042269460C480694FFF77FFE079442
:10144000089409944FF400500A94CDE90B4007A981
:1014500005480D94FFF72AFD0348FFF745FE14B039
:1014600010BD00000000014010000020FEE77047A2
:101470000907090E002806DA00F00F0000F1E0204D
:1014800080F8141D704700F1E02080F800147047C8
:1014900070477047FFF7D8B930B593B0342168462C
:1014A000FEF7E4FE14210DA8FEF7E0FE1948002522
:1014B000016841F080510160006800F08050129096
:1014C0001548016821F4404141F480410160006801
:1014D000022400F44040129001200090000401908A
:1014E0008001CDE90640042008904820CDE9090498
:1014F0000B9468460C94FFF723FB0DA90F2081E89D
:101500003100E002CDE9100502210DA8FFF736FAFF
:1015100013B030BD403802400070004010480168F0
:1015200041F4700101600F48016841F00101016060
:101530000C4A00210832116002680B4B1A4002600D
:10154000031D0A4A1A60026822F4802202600548DC
:101550000C3001600249580680390860704700006D
:1015600088ED00E000380240FFFFF6FE1030002456
:10157000F0B50268234B244D244E254F254C4FF0E7
:10158000804C984209D0604507D0A84205D0B042AF
:1015900003D0B84201D0A04204D122F0700E4A68B4
:1015A00042EA0E0298421BD0604519D0A84217D0DB
:1015B000B04215D0B84213D0A04211D0164DA84267
:1015C0000ED0164DA8420BD0154DA84208D0154D8F
:1015D000A84205D0144DA84202D0144DA84203D110
:1015E00022F44075CA682A4302608A68C2620A68A7
:1015F0008262984201D0A04201D1096901630121B0
:101600004161F0BD000001400004004000080040BE
:10161000000C004000040140004001400044014033
:101620000048014000180040001C0040002000401D
:1016300010B50123046A8B409C430462036A8A400C
:101640001343036210BD10B5846B012184F8391077
:10165000226A824201D121760EE0616A814201D183
:10166000022008E0A16A814201D1042003E0E16A7E
:10167000814201D1082020762046FFF7E3FD0020BB
:10168000207610BD10B5806B012180F83910FFF76E
:101690002AFD10BD10B5846842EA032224F47F4479
:1016A0000A432243826010BD826822F070020A431E
:1016B00042F007018160704730B5026A22F00102F2
:1016C0000262026A436884690D6824F0730425434A
:1016D00022F002048A6822430B4CA04202D00B4C39
:1016E000A0420BD122F00804CA6823F440732243BD
:1016F0004C6922F004021C438B69234343608561DB
:1017000049684163026230BD0000014000040140AD
:1017100030B5026A22F010020262026A43688469EC
:101720000D6824F4E64444EA05248D6822F0200282
:1017300042EA05120D4DA84202D00D4DA8420ED12D
:10174000CD6822F0800242EA05124D6923F440631D
:1017500043EA85038D6922F0400243EA8503436032
:10176000846149688163026230BD0000000001406D
:101770000004014030B5026A22F480720262036AFA
:101780004268C46923F4007324F073050C682C4389
:101790008D6843EA05230D4DA84202D00C4DA842A6
:1017A0000ED1CD6823F4006343EA05234D6922F48A
:1017B000405242EA05128D6923F4806342EA051221
:1017C0004260C4614968C163036230BD00000140EA
:1017D0000004014030B5026A22F480520262046AB9
:1017E0004268C3690D6823F4E64343EA05238D6824
:1017F00024F4005444EA0534084DA84202D0084DB0
:10180000A84204D14D6922F4804242EA8512426026
:10181000C36149680164046230BD000000000140FA
:101820000004014010B5036A046A24F00104046254
:10183000846924F0F00444EA021423F00A020A4303
:101840008461026210BD10B5036A23F010030362C5
:101850008369046A23F4704343EA023224F0A0034C
:1018600043EA01118261016210BDFEE730200449A4
:101870001A2200BF21F81020401C9028FADB704784
:10188000AC000020F8B50024ADF80040012441264A
:1018900003EB4303254D1A2742E000BFBDF800C00B
:1018A000CCF1070E04FA0EFC1CEA000FBDF800C0D4
:1018B0000CEBC30C05EB4C0C02D0ACF8706001E0F3
:1018C000ACF87070BDF800C0CCF1070E04FA0EFE43
:1018D0001EEA010FBDF800E00EEBC30E05EB4E0E45
:1018E00002D0AEF8606001E0AEF86070BDF800E0D4
:1018F000CEF1070E04FA0EFC1CEA020FBDF800C080
:101900000CEBC30C05EB4C0C02D0ACF8806001E092
:10191000ACF88070BDF800C00CF1010CADF800C04F
:10192000BDF800C0BCF1080FB8D3F8BDAC00002072
:1019300002E008C8121F08C1002AFAD17047704798
:10194000002001E001C1121F002AFBD170470000F6
:1019500008B5FEF781FFFFF79FFD2248016841F0BF
:1019600080010160016801F080010091016841F08F
:1019700001010160016801F001010091016841F479
:10198000800101600068002200F480000090114690
:101990003A20FEF7C1FF3A20FEF7B2FFFFF716FD2F
:1019A000FFF764FF00231A4619468020FFF76AFFFD
:1019B0000022012380211046FFF764FF002102234B
:1019C00080220846FFF75EFF4021032300220846DD
:1019D000FFF758FF9023044A04210448FFF734FC22
:1019E000FEE7000030380240AC000020100000206C
:1019F000000610160006101600000000000000008F
:101A00000102030406070809281A00080000002044
:101A10001000000030190008381A000810000020DB
:101A2000C00500004019000801000000100000007F
:081A3000000000000024F40096
:04000005080001C529
:00000001FF
